020050609CD.COI              0000000000MEDICAR                                                                                                                                                                                                                                                                                                                                 0000000001
11ADAIR PINTO GONCALVES                             19411121R BOAVENTURA DO AMARAL, 912                       CENTRO                                  CAMPINAS            SP13015-191                                                     MU005704748096589875           323                  32377886                                     02FA06256200              20050414  0000000002
11AGATHA BLANCHE KOLLER                             19950620R ORESTES COLOMBARI, 336                          JD C ELISIOS                            CAMPINAS            SP13060-061                                                     FS           221563404         322                  32284321                                     02FA06260103              20050518  0000000003
11AGENOR LUIS MAGRI                                 19640719COMENDADOR ALADINO SELMI, 2551                    N APARECIDA                             CAMPINAS            SP13069-101                                                     MC1378317580117986850          32832362100          32825573                                     02FA06263200              20050525  0000000004
11ALAIDE HANZIR DE ALMEIDA                          19190906R ALCIDES DE GODOI, 451                           JD PARAISO                              CAMPINAS            SP13060-020                                                     FU           1053946           325                  32535846                                     02FA06261002              20050517  0000000005
11ALCIDES GERALDO DE ARRUDA                         19720428R ALVES DO BANHO, 527                             VL S BERNARDO                           CAMPINAS            SP13030-580                                                     MC16014592890228487420         327                  32725520                                     02FA06253100              20050323  0000000006
11ALDINAN GABRIEL DE CAMPOS                         20041018R JOAO MARCILIO, 39                               G R VL TEIXEIRA                         CAMPINAS            SP13034-620                                                     MS                             321                  32136419                                     02FA06184602              20050321  0000000007
11ALEKSANDRA MENCHAO FAURA                          19710904R OSVALDO CARLOS VIANA, 57                        JD S CAMILO                             HORTOLANDIA         SP13184-754                                                     FC12071540832246727895         323                  32327475                                     02FN06258500              20050519  0000000008
11ALESSANDRO PAULO FERREIRA                         19830705AV JOSE BONIFACIO, 14-B                           JD FLAMBOYANT                           CAMPINAS            SP13093-240                                                     MS                             329                  32944623                                     02CL07925601              20050420  0000000009
11ALEX DOS SANTOS LIMA                              19880412R JOAO TOSELLO, 21                                REC SOL II                              CAMPINAS            SP13056-636                                                     MS           137382450         322                  32243697                                     02CL07924500              20050331  0000000010
11ALFREDINA RUAS DA CRUZ MARQUES                    19551119R FALCAO FILHO, 152                               CENTRO                                  CAMPINAS            SP13020-160                                                     FC                             323                  32310335                                     02CL07925203              20050413  0000000011
11ALINE CRISTINA DE SOUZA BOTTELHO                  20010212R JOAO BATISTA DE SA, 328                         JD SHANGAI                              CAMPINAS            SP13056-643                                                     FS                             326                  32666195                                     02FA06257001              20050420  0000000012
11ALINE DOS SANTOS SELLIS                           19521121R BERNARDINO MARTINS FILHO, 275                   JD BANDEIRAS                            CAMPINAS            SP13051-103                                                     FC           336484367         326                  32682003                                     02CL07939804              20050517  0000000013
11AMARA BEZERRA DO NASCIMENTO                       19401124R DR NIVALDO ALVES BONILHA, 35                    C S IRIS                                CAMPINAS            SP13059-648                                                     FC                             322                  32270129                                     02CL07116501              20050328  0000000014
11ANA LUCIA DO PATROCINIO                           19690407R CAMAIORE, 276                                   VL C BRANCO                             CAMPINAS            SP13061-240                                                     FS                             328                  32876700                                     02FA06259202              20050504  0000000015
11ANA PEREIRA AMARAL                                19570906R ANTONIO FEITADO, 76                             C UNIVERSITARIA                         CAMPINAS            SP13083-360                                                     FC                             32696057067          32661685                                     02FA06255202              20050331  0000000016
11ANA SOARES DE ALMEIDA                             19320430R REVERENDO PROFESSOR HERCULANO G 36              JD LAGO             JR                  CAMPINAS            SP13050-020                                                     FC           286573945         326                  32698370                                     02PE06258604              20050524  0000000017
11ANDERSON GABRIEL DE SOUZA                         19900113R JOAO BATISTA DE SA, 328                         JD SHANGAI                              CAMPINAS            SP13056-643                                                     MS                             326                  32666195                                     02FA06257101              20050420  0000000018
11ANDERSON PATROCINIO SILVESTRE DE OLIVEIRA         19800303R MONTESE, 510                                    VL C BRANCO                             CAMPINAS            SP13061-041                                                     MS                             326                  32684939                                     02FA06258803              20050501  0000000019
11ANDIARA FERRARI                                   19861121R MIGUEL JOAO JORGE, 95                           JD S JOSE                               CAMPINAS            SP13051-172                                                     FS                             32632691704          32691704                                     02FA06259905              20050510  0000000020
11ANDREA MARQUES NEVES                              19780606R PROFESSOR JOAO AUGUSTO DE TOLEDO, 251           VL P SOUZA                              CAMPINAS            SP13033-720                                                     FS                             32432425510          32424055                                     02CL07925401              20050420  0000000021
11ANDREIA APARECIDA SOUZA CANHADAS                  19700420R MAURO DE CAMPOS JUNIOR, 89                      DIC I                                   CAMPINAS            SP13052-372                                                     FC                             322                  32245341                                     02CL07924301              20050331  0000000022
11ANDREIA CRISTINA DOS SANTOS                       19760507AV ITAMARATI, 785                                 VL AEROPORTO                            CAMPINAS            SP13054-150                                                     FC                             326                  32660627                                     02CL07925106              20050331  0000000023
11ANDREIA JOSE COELHO                               19801120LUIS ANTONIO DE ASSUNCAO LEITE, 281               VL P SOUZA                              CAMPINAS            SP13033-670                                                     FS                             962                  96217012                                     02CL07922301              20050328  0000000024
11ANGELA APARECIDA DA SILVA                         19700812AV ITAMARATI, 785                                 VL AEROPORTO                            CAMPINAS            SP13054-150                                                     FC11926303865238771179         326                  32660627                                     02CL07925100              20050331  0000000025
11ANGELICA ZANESCO DOS SANTOS                       19250818R AUETES, DOS, 96                                 VL C SILVA                              CAMPINAS            SP13081-180                                                     FU           109457377         320                  32083183                                     02FA06261501              20050517  0000000026
11ANTONIO LUIZ DE FRANCA                            19250525R JURUPEMA, 1012 A                                VL AEROPORTO                            CAMPINAS            SP13054-134                                                     MC                             326                  32665883                                     02FA06253402              20050323  0000000027
11APARECIDA AMBROZINA SILVA DE SOUZA                19570715R JOAO BATISTA DE SA, 328                         JD SHANGAI                              CAMPINAS            SP13056-643                                                     FC1191671984818027019          326                  32666195                                     02FA06257100              20050420  0000000028
11APARECIDA DE OLIVEIRA ALVES                       19310502R VERGILIO BRITO SIMOES, 520                      JD A V ZUBEN                            CAMPINAS            SP13044-630                                                     FC                             327                  32714144                                     02FA06252002              20050316  0000000029
11APARECIDA MENDES                                  19570213AV JOSE BONIFACIO, 14-B                           JD FLAMBOYANT                           CAMPINAS            SP13093-240                                                     FU                             329                  32944623                                     02CL07925603              20050420  0000000030
11ARMANDO RODRIGUES DA CUNHA                        19531030CASA BRANCA, 57                                   PRQ INDUSTRIAL                          CAMPINAS            SP13031-130                                                     MU           258550752         327                  32729521                                     02FA06262401              20050519  0000000031
11ARTHUR CAMELO DE AGUIAR                           19180102RUA JOAO MARINS, 314                              NOVA APARECIDA                          CAMPINAS            SP13068-622                                                     MU                             32832528863          32819117                                     02FA06252501              20050320  0000000032
11ARTHUR RUBENS TERRA AGUIAR                        19570102RUA JOAO MARINS, 314                              NOVA APARECIDA                          CAMPINAS            SP13068-622                                                     MC721701408597693725           32832528863          32819117                                     02FA06252500              20050320  0000000033
11BEATRIZ FAURA DOS SANTOS                          20020430R OSVALDO CARLOS VIANA, 57                        JD S CAMILO                             HORTOLANDIA         SP13184-754                                                     FS           246727895         323                  32327475                                     02FN06258502              20050519  0000000034
11BENEDITO DE JESUS PEDRO                           19540618R ANDREA FERNANDES DA SILVA ARAUJO309             JD TAMOIO                               CAMPINAS            SP13097-790                                                     MC823584438917688736           323                  32327475                                     02FN06258700              20050519  0000000035
11BENEDITO DEODATO                                  19580907R VINTE E QUATRO, 33                              COLINA                                  MONTE MOR           SP13190-000                                                     MC9251037086310862017          323                  32327475                                     02FN06258600              20050519  0000000036
11BENEDITO PEREIRA DA SILVA                         19670715R OSVALDO CARLOS VIANA, 57                        JD S CAMILO                             HORTOLANDIA         SP13184-754                                                     MC           246727895         323                  32327475                                     02FN06258503              20050519  0000000037
11CACILDA ALVES PIZA                                19471024R ARNALDO IRINEU CHECCHIA, 203                    PRQ FIGUEIRA                            CAMPINAS            SP13040-050                                                     FC                             327                  32783151                                     02FA06252901              20050321  0000000038
11CACILDA SUELI ALVES MORI                          19600201R VERGILIO BRITO SIMOES, 520                      JD A V ZUBEN                            CAMPINAS            SP13044-630                                                     FC9684180080012436578          327                  32714144                                     02FA06252000              20050316  0000000039
11CAIQUE DA SILVA FERREIRA                          19930811RUA VIRGILIO BARBUTE, 189                         PARQUE UNIVERSITARIO                    CAMPINAS            SP13083-640                                                     MS                             328                  32878173                                     02FA06259602              20050505  0000000040
11CARLOS ALBERTO CELANDRONI                         19450823R CONSELHEIRO JOSE PEREIRA, 272                   JD LONDRES                              CAMPINAS            SP13060-030                                                     MC                             322                  32296179                                     02CL07925301              20050418  0000000041
11CARLOS ALBERTO CORREIA                            19820204R JUREMA, 486                                     DIC VI                                  CAMPINAS            SP13054-622                                                     MS                             322                  32263680                                     02CL07925002              20050331  0000000042
11CARLOS ALBERTO GARCIA PADOVANI                    19770508R CULTO A CIENCIA, 367 APTO 20                    BOTAFOGO                                CAMPINAS            SP13020-060                                                     MS26360075806276131976         323                  32327475                                     02FA06261200              20050519  0000000043
11CARLOS ALBERTO TOMAZIO OLIVEIRA                   19810202DOM OSCAR ROMERO, 116                             JD N C ELISIOS                          CAMPINAS            SP13060-442                                                     MS22016371803344480288         326                  32693276                                     02CL07922600              20050328  0000000044
11CARLOS CORREA                                     19550823R BENJAMIN MALUF, 468                             JD C LOURENCO                           CAMPINAS            SP13097-030                                                     MC5532616183466128766          325                  32536743                                     02FA06255300              20050331  0000000045
11CARLOS EDUARDO CORREIA                            19590803R JUREMA, 486                                     DIC VI                                  CAMPINAS            SP13054-622                                                     MC                             322                  32263680                                     02CL07925001              20050330  0000000046
11CARLOS EDUARDO SICHIERI                           19781127R CASA BRANCA, 77                                 PRQ INDUSTRIAL                          CAMPINAS            SP13031-130                                                     MS                             327                  32731138                                     02FA06256901              20050419  0000000047
11CARLOS ROBERTO LOPES                              19650713PAPA SANTO INOCENCIO I, 353                       CJ HAB P ANCHIETA                       CAMPINAS            SP13068-269                                                     MC0321598580218509452          328                  32821357                                     02FA06254800              20050308  0000000048
11CARMEM VALENTINA KOLLER CARDOSO                   20031226R ORESTES COLOMBARI, 336                          JD C ELISIOS                            CAMPINAS            SP13060-061                                                     FS                             322                  32284321                                     02FA06260101              20050509  0000000049
11CHRYGOR GABRIEL SOUZA ROCHA                       20040224VLA G, 147                                        A METONOPOLIS                           CAMPINAS            SP13058-458                                                     MC           132860261         326                  32615566                                     02CL07967301              20050527  0000000050
11CIRLEI BUBIN                                      19871102R FALCAO FILHO, 152                               CENTRO                                  CAMPINAS            SP13020-160                                                     FS                             323                  32310335                                     02CL07925204              20050413  0000000051
11CLAUDIA APARECIDA PATROCINIO PIERONI              19720505R MONTE PRANO, 255                                VL C BRANCO                             CAMPINAS            SP13061-252                                                     FC1080600280827707261x         815                  81535623                                     02FA06259500              20050430  0000000052
11CLEIDE SARTORI CAMARGO                            19410829R MARQUES DE VALENCA, 520                         JD S GENEBRA                            CAMPINAS            SP13080-230                                                     FC           5136319           320                  32082373                                     02FA06262801              20050523  0000000053
11CLEIDE SARTORI CAMARGO                            19410829R MARQUES DE VALENCA, 520                         JD S GENEBRA                            CAMPINAS            SP13080-230                                                     FC           5136319           320                  32082373                                     02FA06259802              20050523  0000000054
11CLESIO PACHECO DUARTE                             19400226RUA DONA AMELIA DE PAULA, 124                     JARDIM LEONOR                           CAMPINAS            SP13041-40                                                      MC021042108874933773           323                  32366071                                     02FA06260200              20050511  0000000055
11CLEYTON RODRIGUES DE SOUZA                        19820317R AYRTON JOSE DE COUTO, 07                        RES SAO JOSE                            CAMPINAS              13057-158                                                     MC           293392006         323                  32327475                                     02FN06259101              20040801  0000000056
11CRISTHIANNE TRESSO PADILHA                        19790804DOUTOR MAURO BRANDEMBURGO, 814                    JD M M COSTA        APTO. 21 BLOCO F    CAMPINAS            SP13097-859                                                     FS                             325                  32572234                                     02FA06252101              20050318  0000000057
11DALUA DE FATIMA CHRESTA SOUZA                     19640223AV ITAMARATI, 785                                 VL AEROPORTO                            CAMPINAS            SP13054-150                                                     FC                             326                  32660627                                     02CL07925107              20050331  0000000058
11DANIEL ALMEIDA DE OLIVEIRA                        19740622R REVERENDO PROFESSOR HERCULANO G 36              JD LAGO             JR                  CAMPINAS            SP13050-020                                                     MC18424359810286573945         32632333578          32698370                                     02PE06258600              20050524  0000000059
11DANIEL SIMPLICIO NARCIZO                          19811229MANOEL FERREIRA, 143                              PRQ RES VL UNIAO                        CAMPINAS            SP13060-705                                                     MS22603472828349966746         32632695360          32695360                                     02CL07922500              20050328  0000000060
11DANIELA DE ALMEIDA MARTINS                        19690407R ALCIDES DE GODOI, 451                           JD PARAISO                              CAMPINAS            SP13060-020                                                     FS           1053946           325                  32535846                                     02FA06261003              20050517  0000000061
11DANIELA PATROCINIO SILVESTRE OLIVEIRA             19870105R MONTESE, 510                                    VL C BRANCO                             CAMPINAS            SP13061-041                                                     FS                             326                  32684939                                     02FA06258807              20050501  0000000062
11DANIELA PINHEIRO                                  19780721R MARCOS TEODORO, 638                             JD SHANGAI                              CAMPINAS            SP13056-650                                                     FS0236429981021902580          322                  32264517                                     02FA06255600              20050331  0000000063
11DARIO CAIXETA DE OLIVEIRA                         19751022AV JOSE PANCETTI, 861                             VL P SOUZA                              CAMPINAS            SP13033-100                                                     MS99938375634M7618849          323                  32327475                                     02FN06258900              20050519  0000000064
11DAVI NATANAEL DE SOUZA                            19950524R JOAO BATISTA DE SA, 328                         JD SHANGAI                              CAMPINAS            SP13056-643                                                     MS                             326                  32666195                                     02FA06257002              20050420  0000000065
11DENISE CACHINE RODRIGUES                          19681012R STA MARIA MADALENA POSTEL, 440                  STA LUCIA                               CAMPINAS            SP13060-488                                                     FS1204110280218171665          323                  32327475                                     02FN06259000              20050519  0000000066
11DIEGO MIGUEL MAFRA                                19900113RUA DOIS, 79                                      JARDIM CAMPINEIRO                       CAMPINAS            SP13082-335                                                     MS           81440936          324                  32462575                                     02PE06258503              20050524  0000000067
11DIMO SLATEFF                                      19281124RUA ITATIBA, 1495                                 JD  NOVO C  ELISIO                      CAMPINAS            SP13005-545                                                     MC065630318201531276           322                  32294445                                     02FA06257300              20050425  0000000068
11DINORIA DEL GALLO BERTON                          19210212R BARREIRO, 44                                    PONTE PRETA                             CAMPINAS            SP13041-370                                                     MC18424610873101821608                                                                           02FA06258700              20050429  0000000069
11DIRCE TOLEDO DE SOUZA                             19470211R MAURO DE CAMPOS JUNIOR, 89                      DIC I                                   CAMPINAS            SP13052-372                                                     FC                             322                  32245341                                     02CL07924303              20050331  0000000070
11DIVA PEREIRA DOS SANTOS FERNANDES                 19740518AV WASHINGTON LUIS, 122                           VL MARIETA                              CAMPINAS            SP13043-000                                                     FC                             323                  32313871                                     02FA06259002              20050502  0000000071
11DORACI TEREZA DE MORAIS                           19421109R CAMAIORE, 276                                   VL C BRANCO                             CAMPINAS            SP13061-240                                                     FC                             328                  32876700                                     02FA06255900              20050331  0000000072
11DORACI TEREZA DE MORAIS                           19421109R CAMAIORE, 276                                   VL C BRANCO                             CAMPINAS            SP13061-240                                                     FC8201001389198560724          328                  32876700                                     02FA06259200              20050504  0000000073
11DOUGLAS WILLIAM PEREIRA DA SILVA                  19920713R OSVALDO CARLOS VIANA, 57                        JD S CAMILO                             HORTOLANDIA         SP13184-754                                                     MS12071540832246727895         323                  32327475                                     02FN06258501              20050519  0000000074
11EDEMILSON ANTONIO DE OLIVEIRA                     19680605R TAIUVAS, DAS, 174                               VL B VISTA                              CAMPINAS            SP13065-770                                                     MC1080651187717500087          912                  91251403                                     02CL07923500              20050328  0000000075
11EDERSON BEZZERRA DO SANTOS                        19820313LUIS ANTONIO DE ASSUNCAO LEITE, 281               VL P SOUZA                              CAMPINAS            SP13033-670                                                     MS29367308809352534394         962                  96217012                                     02CL07922300              20050328  0000000076
11EDIVALDO PEREIRA DA SILVA                         19680815R BENEDITA RIBEIRO, 183                           JD S LUCIA                              CAMPINAS            SP13060-512                                                     MC1205398180621495000          918                  91895682                                     02CL07923200              20030328  0000000077
11EDOINA FATIMA OLIVEIRA DA ROCHA                   19880215VLA G, 147                                        A METONOPOLIS                           CAMPINAS            SP13058-458                                                     FC26781900803132860261         32691890651          32615566                                     02CL07967300              20050527  0000000078
11EDSON RODRIGUES DA CUNHA                          19670523PARANA, 58                                        VL S BERNARDO                           CAMPINAS            SP13030-560                                                     MS           238550752         327                  32730479                                     02FA06262202              20050519  0000000079
11ELIANA DE CASSIA PATROCINIO DE OLIVEIRA           19621016R MONTESE, 510                                    VL C BRANCO                             CAMPINAS            SP13061-041                                                     FC                             326                  32684939                                     02FA06258801              20050501  0000000080
11ELIAS DE SOUZA NUNES                              19780705R GARA, 100                                       PRQ D PEDRO II                          CAMPINAS            SP13056-414                                                     MS265934858882717341           911                  91135007                                     02CL07923000              20050328  0000000081
11ELIZANDRA ROSA DA SILVA FERNANDES                 19800724COMENDADOR ALADINO SELMI, 2557                    N APARECIDA         APTO 13 BL A        CAMPINAS            SP13069-101                                                     FC           1359003762        328                  32822494                                     02FA06262904              20050524  0000000082
11ELZA PEREIRA LOPES                                19390930R MIGUEL JOAO JORGE, 95                           JD S JOSE                               CAMPINAS            SP13051-172                                                     FC                             32632691704          32691704                                     02FA06259904              20050510  0000000083
11EMELI MAYRE DE AGUIAR MIRANDA                     20010113R REBERT DE SOUZA, 50                             STA CRUZ            APTO. 22 BLOCO A    CAMPINAS            SP13023-181                                                     FS                             814                  81448341                                     02CL07922101              20050328  0000000084
11ERCIANO RODRIGUES DE OLIVEIRA                     19760722APIABA, 78                                        PRQ U VIRACOPOS                         CAMPINAS            SP13056-444                                                     MS270528358788565792           977                  97779739                                     02CL07924100              20050331  0000000085
11ESMERALDA BRANCA DA COSTA KOLLER                  19671114R ORESTES COLOMBARI, 336                          JD C ELISIOS                            CAMPINAS            SP13060-061                                                     FC10800555848221563404         322                  32284321                                     02FA06260100              20050509  0000000086
11ESTEFANE MICHELE FARIAS                           19850126TOMAS GONCALVES GOMIDE, 11                        PRQ INDUSTRIAL                          CAMPINAS            SP13031-550                                                     FC                             327                  32735057                                     02CL07925501              20050426  0000000087
11EVANDRO COSTA RIBEIRO LOPES                       19750901TOMAS GONCALVES GOMIDE, 11                        PRQ INDUSTRIAL                          CAMPINAS            SP13031-550                                                     MC15778268840248162172         327                  32735057                                     02CL07925500              20050426  0000000088
11FAUSTO DE LIMA                                    19500303R MARCOS TEODORO, 638                             JD SHANGAI                              CAMPINAS            SP13056-650                                                     MC                             322                  32264517                                     02FA06255001              20050324  0000000089
11FELIPE RODRIGUES                                  19990914R STA MARIA MADALENA POSTEL, 440                  STA LUCIA                               CAMPINAS            SP13060-488                                                     MS           18171665          323                  32327475                                     02FN06259001              20050519  0000000090
11FERNANDA CRISTINA FERREIRA                        19820901R EDSON SALLES DE OLIVEIRA, 8                     CENTRO                                  CAMPINAS            SP13010-200                                                     FS                             921                  92134607                                     02CL07923801              20050329  0000000091
11FERNANDO APARECIDO CALIPO                         19510201R ANTONIO MARQUES SERRA, 314                      JD A V ZUBEN                            CAMPINAS            SP13044-500                                                     MC470118588495547565           327                  32764104                                     02FA06252400              20050318  0000000092
11FLAVIA CRISTINA SILVESTRE OLIVEIRA                19820528R MONTESE, 510                                    VL C BRANCO                             CAMPINAS            SP13061-041                                                     FS                             326                  32684939                                     02FA06258804              20050501  0000000093
11FLAVIA REGINA SANTIANA                            19890328R ANESIO ESTEVES CORDEIRO, 145                    JD LISA                                 CAMPINAS            SP13058-354                                                     FS           141059837         326                  32615566                                     02CL07967403              20050527  0000000094
11FLAVIO APARECIDO SANTIANA                         19610814R ANESIO ESTEVES CORDEIRO, 145                    JD LISA                                 CAMPINAS            SP13058-354                                                     MC02481772814141059837         32691579463          32615566                                     02CL07967400              20050527  0000000095
11FLAVIO AUGUSTO MATIAS                             19781117R CAIEIRAS, 100                                   VL S PAULO                              JUNDIAI             SP13203-513                                                     MC21623558840296341393         915                  91564884                                     02CL07923100              20050328  0000000096
11FLORIPES SALGUEIRO LOUREIRO                       19280506R QUATRO, 23                                      PRQ M HELENA                            CAMPINAS            SP13067-844                                                     FU           5414634           328                  32811438                                     02FA06263301              20050524  0000000097
11FRANCIELLE SILVEIRA                               19780430R AYRTON JOSE DE COUTO, 07                        RES SAO JOSE                            CAMPINAS              13057-158                                                     FC26137999866293392006         323                  32327475                                     02FN06259100              20040801  0000000098
11FRANCISCO AMORIM DA SILVA FILHO                   19750814LUIS ANTONIO DE ASSUNCAO LEITE, 218               VL P SOUZA                              CAMPINAS            SP13033-670                                                     MC25656020819309879462         917                  91749486                                     02CL07922800              20050328  0000000099
11FRANCISCO DAS CHAGAS VIANA GALVAO                 19620528RUA DOIS, 79                                      JARDIM CAMPINEIRO                       CAMPINAS            SP13082-335                                                     MS3270158645381440936          32496483654          32462575                                     02PE06258500              20050524  0000000100
11GABRIEL VERISSIMO DE OLIVEIRA                     19950605R TAIUVAS, DAS, 174                               VL B VISTA                              CAMPINAS            SP13065-770                                                     MS                             912                  91251403                                     02CL07923502              20050328  0000000101
11GABRIELA PATROCINIO SILVESTRE OLIVEIRA            19840906R MONTESE, 510                                    VL C BRANCO                             CAMPINAS            SP13061-041                                                     FS                             326                  32684939                                     02FA06258806              20050501  0000000102
11GABRIELA PINHEIRO                                 19750419R ANTONIO CANDIDO FILHO, 127                      JD SHANGAI                              CAMPINAS            SP13056-650                                                     FS1531782485021902580          974                  97403391                                     02FA06255100              20050324  0000000103
11GEANE SERRANO ANTONIO                             19760727AV RUY RODRIGUES,784                              JD N C ELISIOS                          CAMPINAS            SP13060-600                                                     FS           3584459           322                  32235878                                     02CL07939305              20050517  0000000104
11GEGIANE SERRANO ANTONIO                           19801227R BERNARDINO MARTINS FILHO, 275                   JD BANDEIRAS                            CAMPINAS            SP13051-103                                                     FC29561553856336484367         32637056010          32682003                                     02CL07939800              20050517  0000000105
11GERALDO ANTONIO SILVA                             19480629AV RUY RODRIGUES,784                              JD N C ELISIOS                          CAMPINAS            SP13060-600                                                     MS193268408593584459           322                  32235878                                     02CL07939300              20050517  0000000106
11GERALDO SERAFIM DOS SANTOS                        19370102R MARIO BASSANI, 184                              JD S VICENTE                            CAMPINAS            SP13045-540                                                     MC19794029815214931936         327                  32765459                                     02CL06972900              20050328  0000000107
11GILBERTO FRANCO DE OLIVEIRA                       19290504R VERBENAS, DAS, 89                               VL MIMOSA                               CAMPINAS            SP13050-043                                                     MC7202073382013290312X         322                  32294848                                     02FA06263600              20050530  0000000108
11GUILHERME AUGUSTO DOS SANTOS                      19950621R MONSENHOR BRUNO NARDINI, 34                     JD SAMAMBAIA                            CAMPINAS            SP13046-770                                                     MS           14288259          327                  32762720                                     02FA06260401              20050513  0000000109
11GUILHERME CAVALCANTI MATIAS                       20030328R CAIEIRAS, 100                                   VL S PAULO                              JUNDIAI             SP13203-513                                                     MS                             915                  91564884                                     02CL07923102              20050328  0000000110
11GUIOMAR BENJAMIN BRITO LOPES                      19550315PAPA SANTO INOCENCIO I, 353                       CJ HAB P ANCHIETA                       CAMPINAS            SP13068-269                                                     FC                             328                  32821357                                     02FA06254801              20050308  0000000111
11HARLEY HENRIQUE MIRANDA                           19731002R REBERT DE SOUZA, 50                             STA CRUZ            APTO. 22 BLOCO A    CAMPINAS            SP13023-181                                                     MC21256715816245243926         814                  81448341                                     02CL07922100              20050328  0000000112
11HIAGO DOS SANTOS OLIVEIRA                         20020618R REVERENDO PROFESSOR HERCULANO G 36              JD LAGO             JR                  CAMPINAS            SP13050-020                                                     MS           286573945         326                  32698370                                     02PE06258603              20050524  0000000113
11ILDA FRANCISCA CHAGAS                             19300724R ORESTES COLOMBARI, 535                          JD C ELISIOS                            CAMPINAS            SP13060-061                                                     FU           18456482          322                  32283678                                     02FA06261701              20050518  0000000114
11IRANDI ALVES DOS SANTOS                           19600201R ROBERTO FONSECA DE BARROS,                      PRQ RES VL UNIAO                        CAMPINAS            SP13060-743                                                     FC01703091850132906089         302                  30293786                                     02FA06255700              20050409  0000000115
11IRANI RUAS MARQUES                                19771122R FALCAO FILHO, 152                               CENTRO                                  CAMPINAS            SP13020-160                                                     FS                             323                  32310335                                     02CL07925201              20050413  0000000116
11IRIS MARQUES RUAS                                 19750220R FALCAO FILHO, 152                               CENTRO                                  CAMPINAS            SP13020-160                                                     FS18429481800244206338         323                  32310335                                     02CL07925200              20050413  0000000117
11IRMA TEREZINHA HANZIR                             19340212R ALVARO MULLER, 852                              VL ITAPURA                              CAMPINAS            SP13023-181                                                     FS1218444681521404768          323                  32360136                                     02FA06259400              20050429  0000000118
11ISABELA FARIAS LOPES                              20020130TOMAS GONCALVES GOMIDE, 11                        PRQ INDUSTRIAL                          CAMPINAS            SP13031-550                                                     FS                             327                  32735057                                     02CL07925502              20050426  0000000119
11ISMERIA DE FATIMA PINHEIRO LIMA                   19550403R MARCOS TEODORO, 638                             JD SHANGAI                              CAMPINAS            SP13056-650                                                     FC1531782485021902580          322                  32264517                                     02FA06255000              20050324  0000000120
11IZAURA DA SILVA FRANCA                            19360608R JURUPEMA, 1012 A                                VL AEROPORTO                            CAMPINAS            SP13054-134                                                     FC                             326                  32665883                                     02FA06253401              20050323  0000000121
11IZEMIR MARIA INACIO DE OLIVEIRA                   19300726R TAIUVAS, DAS, 174                               VL B VISTA                              CAMPINAS            SP13065-770                                                     MU                             912                  91251403                                     02CL07923504              20050328  0000000122
11JACKSON LUIZ JOSIAS FERNANDES                     19551007COMENDADOR ALADINO SELMI, 2557                    N APARECIDA         APTO 13 BL A        CAMPINAS            SP13069-101                                                     MC           1359003762        328                  32822494                                     02FA06262903              20050524  0000000123
11JACQUELINE DO NASCIMENTO DA SILVA                 19770821R ALVARO MULLER, 754                              VL ITAPURA                              CAMPINAS            SP13023-181                                                     FC           247650420         913                  91398560                                     02CL07922701              20050328  0000000124
11JAIME NARDEZ                                      19621101R VALINHOS, 26                                    PRQ FRANCISCHINE                        SUMARE              SP13170-570                                                     MS0249973189314469920          323                  32327475                                     02FN06259200              20050519  0000000125
11JESSICA NATALIA DO PATROCINIO                     19881225R CAMAIORE, 276                                   VL C BRANCO                             CAMPINAS            SP13061-240                                                     FS                             328                  32876700                                     02FA06255902              20050331  0000000126
11JESSICA NATALIA DO PATROCINIO                     19881225R CAMAIORE, 276                                   VL C BRANCO                             CAMPINAS            SP13061-240                                                     FS                             328                  32876700                                     02FA06259203              20050504  0000000127
11JOAO DO PATROCINIO                                19370624R CAMAIORE, 276                                   VL C BRANCO                             CAMPINAS            SP13061-240                                                     MC                             328                  32876700                                     02FA06259201              20050504  0000000128
11JOAO DOMICIANO DE SOUZA                           19560227R JOAO BATISTA DE SA, 328                         JD SHANGAI                              CAMPINAS            SP13056-643                                                     MC                             326                  32666195                                     02FA06257103              20050420  0000000129
11JOAO DOMINIGUES DA SILVA                          19770531R DR NIVALDO ALVES BONILHA, 35                    C S IRIS                                CAMPINAS            SP13059-648                                                     MC28651920830351177905`        322                  32270129                                     02CL07116500              20050328  0000000130
11JOAO GABRIEL SOUZA DA SILVA                       19920623AV COACIARA, 722                                  PRQ D PEDRO II                          CAMPINAS            SP13056-430                                                     FS                             322                  32269388                                     02FA06257602              20050421  0000000131
11JOAO PEDRO DE SOUZA                               19340422R BOAVENTURA DO AMARAL, 912                       CENTRO                                  CAMPINAS            SP13015-191                                                     MV                             323                  32377886                                     02FA06256201              20050414  0000000132
11JOCCLI APARECIDA ELOY                             19811109R CASA BRANCA, 77                                 PRQ INDUSTRIAL                          CAMPINAS            SP13031-130                                                     FS                             327                  32731138                                     02FA06256902              20050419  0000000133
11JOCELI GONALVES SILVINO                          19651202R MANOEL FERNANDES DIAS, 12                       JD N C ELISIOS                          CAMPINAS            SP13060-110                                                     FS                             32637255972          32688040                                     02FA06259702              20050506  0000000134
11JONATHAN PEREIRA DE OLIVEIRA                      19930120MARCOS TEODORO, 582                               JD SHANGAI                              CAMPINAS            SP13056-650                                                     MS                             326                  32669509                                     02FA06253901              20050330  0000000135
11JORGE ALVES                                       19280611R VERGILIO BRITO SIMOES, 520                      JD A V ZUBEN                            CAMPINAS            SP13044-630                                                     MC                             327                  32714144                                     02FA06252001              20050316  0000000136
11JOSE ANTONIO                                      19471120AV RUY RODRIGUES,784                              JD N C ELISIOS                          CAMPINAS            SP13060-600                                                     MC           3584459           322                  32235878                                     02CL07939303              20050517  0000000137
11JOSE ANTONIO DOS SANTOS                           19290716AV WASHINGTON LUIS, 122                           VL MARIETA                              CAMPINAS            SP13043-000                                                     MU865744349046461295           323                  32313871                                     02FA06258900              20050502  0000000138
11JOSE ANTONIO FERREIRA                             19281028R DOUTOR PAULO ARIANI, 196                        JD YEDA                                 CAMPINAS            SP13060-614                                                     MC7756934288727549410X         32632393611          32634783                                     02FA06262000              20050513  0000000139
11JOSE BATISTA DE OLIVEIRA                          19650123R ORESTES COLOMBARI, 535                          JD C ELISIOS                            CAMPINAS            SP13060-061                                                     MS0689168187118456482          322                  32283678                                     02FA06261700              20050518  0000000140
11JOSE CARLOS CANESQUI                              19461207R CAETES, DOS, 76                                 VL C SILVA                              CAMPINAS            SP13081-210                                                     MS                             320                  32084155                                     02FA06254001              20050330  0000000141
11JOSE CICERO MARQUES                               19550430R FALCAO FILHO, 152                               CENTRO                                  CAMPINAS            SP13020-160                                                     MC                             323                  32310335                                     02CL07925205              20050413  0000000142
11JOSE DOS SANTOS CARNEIRO                          19330312RUA LOPES TROVAO, 336                             TAQUARAL                                CAMPINAS            SP13076-670                                                     MC0731855388710944200          325                  32537053                                     02FA06259100              20050502  0000000143
11JOSE LUIZ CONSTANTINI                             19590401SANTA BARBARA D OESTE, 530                        JD N C ELISIOS                          CAMPINAS            SP13050-542                                                     MC0169815587511992669          326                  32691238                                     02FA06253700              20050329  0000000144
11JOSE MALAQUIAS DOS ANJOS                          19480518QUATRO, 130                                       JD LILISA                               CAMPINAS            SP13058-274                                                     MC307377376202007365           327                  32729359                                     02FA06253200              20050323  0000000145
11JOSE PIZA                                         19341018R ARNALDO IRINEU CHECCHIA, 203                    PRQ FIGUEIRA                            CAMPINAS            SP13040-050                                                     MC7242663288795959105          327                  32783151                                     02FA06252900              20050321  0000000146
11JOSE RAMALHO DE OLIVEIRA                          19190820R FREI JOSE DE MONTE CARMELO, 55                  JD PRIMAVERA                            CAMPINAS            SP13026-460                                                     MU1214910181565261860          32396012385          32368296                                     02FA06202700              20040203  0000000147
11JOSE ROBERTO DE LIMA NETO                         19951011R ANTONIO CANDIDO FILHO, 127                      JD SHANGAI                              CAMPINAS            SP13056-650                                                     MS                             974                  97403391                                     02FA06255101              20050324  0000000148
11JOSE RODRIGUES DA SILVA                           19490609R CAROLINA FRANCCHETTA TOZZI, 292                 PRQ VALENCA                             CAMPINAS            SP13058-531                                                     MC                             322                  32218770                                     02FA06254901              20050329  0000000149
11JOSEF DA SILVA RODRIGUES                          19861022R JOSE PAULINO, 320                               CENTRO                                  CAMPINAS            SP13013-000                                                     MS                             323                  32336565                                     02CL07925701              20050427  0000000150
11JOSELIA QUIRINO BARRETO RAYMUNDO                  19370113NELSON BARBOSA DA SILVA, 874                      JD PROFILURB                            CAMPINAS            SP13056-330                                                     FU                             322                  32267079                                     02FA06253001              20050328  0000000151
11JOS MARIA DA SILVA                               19470110R WOITECOS S BERTONI, 153                         JD CPO BELO                             CAMPINAS            SP13053-133                                                     MC                             326                  32651844                                     02FA06258101              20050427  0000000152
11JUAN LEANDRO MIGUEL MAFRA                         19880625RUA DOIS, 79                                      JARDIM CAMPINEIRO                       CAMPINAS            SP13082-335                                                     MS           81440936          324                  32462575                                     02PE06258502              20050524  0000000153
11JUDITE MARIA MILIORINI FERNANDES                  19490407R TERESA BONATO SIGNORI, 156                      JD S GENEBRA                            CAMPINAS            SP13084-820                                                     FC2743335181718170460          328                  32815770                                     02FA06254700              20050405  0000000154
11JULIANA CALIPO                                    19810423R ANTONIO MARQUES SERRA, 314                      JD A V ZUBEN                            CAMPINAS            SP13044-500                                                     FS                             327                  32764104                                     02FA06252402              20050318  0000000155
11JULIANO CARLOS NASCIMENTO                         19811111R POCOS DE CALDAS, 162                            VILA UNIAO                              CAMPINAS            SP13060-493                                                     MC21698226829340068991         322                  32234455                                     02CL07922900              20050328  0000000156
11JULIO CESAR CALGAROTTO                            19720514OSWALDO IMS, 215                                  JD S LUCIA                              CAMPINAS            SP13060-511                                                     MC           13246725X         920                  92021216                                     02CL07923600              20050328  0000000157
11JUVENAL RAYMUNDO                                  19370131NELSON BARBOSA DA SILVA, 874                      JD PROFILURB                            CAMPINAS            SP13056-330                                                     MC0969585187818798997          322                  32267079                                     02FA06253000              20050328  0000000158
11KAUA HENRIQUE SOUZA SILVA                         20041022R JOSE SERRA DO AMARAL, 80                        DIC III (CJ HAB R NO                    CAMPINAS            SP13054-247                                                     MS                             921                  92143773                                     02FA06255801              20050408  0000000159
11KELY CRISTINA FERREIRA DE SOUZA                   19861013VLA G, 148                                        A METONOPOLIS                           CAMPINAS            SP13058-458                                                     FS2612931287313829366X         322                  32215132                                     02CL07967200              20050527  0000000160
11KIM GRIBEL DIAS                                   19871202R URUGUAIANA, 559                                 BOSQUE              APTO. 23            CAMPINAS            SP13026-001                                                     MS                             323                  32376064                                     02FA06251301              20050228  0000000161
11LAERTE MARTINS                                    19400814R ALCIDES DE GODOI, 451                           JD PARAISO                              CAMPINAS            SP13060-020                                                     MC031194598871053946           32597905897          32535846                                     02FA06261000              20050517  0000000162
11LAUDELINA MARIA ANGELICA DA SILVA ANTONIO         19200629AV RUY RODRIGUES,784                              JD N C ELISIOS                          CAMPINAS            SP13060-600                                                     FC           3584459           322                  32235878                                     02CL07939302              20050517  0000000163
11LEANDRO VIEIRA                                    19831226R ANDRADINA, 417                                  REC CAMPINEIRO                          HORTOLANDIA         SP13184-340                                                     MS2242667580282375376          323                  32327475                                     02FN06259300              20050519  0000000164
11LETICIA DO AMARAL FERREIRA                        20041209R JOAO TOSELLO, 21                                REC SOL II                              CAMPINAS            SP13056-636                                                     FS                             32232661738          32243697                                     02CL07924002              20070331  0000000165
11LETICIA PRADO FORTUNA CACIOPPOLINI                19840731R JOSE INOCENCIO DE CAMPOS, 46                    CAMBUI                                  CAMPINAS            SP13024-230                                                     FS                             325                  32514746                                     02FA06251201              20050228  0000000166
11LINDOLFO VIEIRA SELLIS                            19521030R BERNARDINO MARTINS FILHO, 275                   JD BANDEIRAS                            CAMPINAS            SP13051-103                                                     MC           336484367         326                  32682003                                     02CL07939803              20050517  0000000167
11LUCAS VERISSIMO DE OLIVEIRA                       20030319R TAIUVAS, DAS, 174                               VL B VISTA                              CAMPINAS            SP13065-770                                                     MS                             912                  91251403                                     02CL07923503              20050328  0000000168
11LUCIANO CANDIDO DA SILVA                          19810807ENGENHEIRO OSVALDO NASCIMENTO DE LEMOS,7          VL LEMOS                                CAMPINAS            SP13096-280                                                     MC           253944661         325                  32510951                                     02CL07967701              20050530  0000000169
11LUCIDALVA DA SILVA                                19770820AV ITAMARATI, 785                                 VL AEROPORTO                            CAMPINAS            SP13054-150                                                     FS                             326                  32660627                                     02CL07925102              20050331  0000000170
11LUIS HENRIQUE CARVALHO DA SILVA                   19880721AV JOSE BONIFACIO, 14-B                           JD FLAMBOYANT                           CAMPINAS            SP13093-240                                                     MS                             329                  32944623                                     02CL07925602              20050420  0000000171
11LUISABEL SCHNEIDER VASCONCELOS                    19590820R PROFESSOR JOAO AUGUSTO DE TOLEDO, 251           VL P SOUZA                              CAMPINAS            SP13033-720                                                     FC21342048857323392076         32432425510          32424055                                     02CL07925400              20050420  0000000172
11LURDES QUIDEROLI DA SILVA                         19511026R WOITECOS S BERTONI, 153                         JD CPO BELO                             CAMPINAS            SP13053-133                                                     FC9542467982021339371          326                  32651844                                     02FA06258100              20050427  0000000173
11MAGDALENA DELGALLO ZANCAN                         19240425R BARREIRO, 44                                    PONTE PRETA                             CAMPINAS            SP13041-370                                                     FU                                                                                               02FA06258701              20050429  0000000174
11MARCELO DOMICIANO DE SOUZA                        19720606R JOAO BATISTA DE SA, 328                         JD SHANGAI                              CAMPINAS            SP13056-643                                                     MS                             326                  32666195                                     02FA06257102              20050420  0000000175
11MARCELO PATROCINIO SILVESTRE OLIVEIRA             19830425R MONTESE, 510                                    VL C BRANCO                             CAMPINAS            SP13061-041                                                     MS                             326                  32684939                                     02FA06258805              20050501  0000000176
11MARCOS VINICIUS RUCCO CARNEIRO                    19960905R FALCAO FILHO, 152                               CENTRO                                  CAMPINAS            SP13020-160                                                     MS                             323                  32310335                                     02CL07925206              20050413  0000000177
11MARGARIDA MARIA DOS SANTOS                        19540704R MONSENHOR BRUNO NARDINI, 34                     JD SAMAMBAIA                            CAMPINAS            SP13046-770                                                     FV0797159681214288259          32797403558          32762720                                     02FA06260400              20050513  0000000178
11MARIA ANGELA PEREIRA LOPES FERRARI                19641101R MIGUEL JOAO JORGE, 95                           JD S JOSE                               CAMPINAS            SP13051-172                                                     FU02770159879168092219         32632691704          32691704                                     02FA06259900              20050510  0000000179
11MARIA ANGELICA GIBIN DE LIMA                      19400103DANIEL GODOI PEREIRA, 139                         CJ HAB V NOVA                           CAMPINAS            SP13057-541                                                     FU088010838079596320           326                  32668934                                     02FA06252700              20050322  0000000180
11MARIA ANTONIA SERRANO ANTONIO                     19490220AV RUY RODRIGUES,784                              JD N C ELISIOS                          CAMPINAS            SP13060-600                                                     FC           3584459           322                  32235878                                     02CL07939301              20050517  0000000181
11MARIA APARECIDA DA SILVA                          19700501R CAROLINA FRANCCHETTA TOZZI, 292                 PRQ VALENCA                             CAMPINAS            SP13058-531                                                     FC17386743807254710402         322                  32218770                                     02FA06254900              20050329  0000000182
11MARIA APARECIDA QUIDERONI                         19580430R WOITECOS S BERTONI, 153                         JD CPO BELO                             CAMPINAS            SP13053-133                                                     FS                             326                  32651844                                     02FA06258102              20050427  0000000183
11MARIA APARECIDA TOLEDO                            19500908R CAMINHO BOA ESPERANCA, 20                       VILA GEORGINA                           CAMPINAS            SP13080-501                                                     FS2125906988516123927          327                  32799265                                     02FA06258500              20050429  0000000184
11MARIA CLEIDE COSTA EUGENIA                        19530929R DINO PIOLI, 148                                 JD LISA                                 CAMPINAS            SP13058-364                                                     FC           285467736         326                  32612197                                     02CL07967501              20050531  0000000185
11MARIA CRISTINA CAMARGO                            19680826R MARQUES DE VALENCA, 520                         JD S GENEBRA                            CAMPINAS            SP13080-230                                                     FS                             320                  32082373                                     02FA06259801              20050506  0000000186
11MARIA DA ENCARNAO                               19081001AV WASHINGTON LUIS, 122                           VL MARIETA                              CAMPINAS            SP13043-000                                                     FU                             323                  32313871                                     02FA06259001              20050502  0000000187
11MARIA DE LOURDES ANTONIOLLI CALIPO                19510615R ANTONIO MARQUES SERRA, 314                      JD A V ZUBEN                            CAMPINAS            SP13044-500                                                     FC                             327                  32764104                                     02FA06252401              20050318  0000000188
11MARIA DE LURDES OLIVEIRA NASCIMENTO               19530421AV ITAMARATI, 785                                 VL AEROPORTO                            CAMPINAS            SP13054-150                                                     FS                             326                  32660627                                     02CL07925103              20050331  0000000189
11MARIA EDUARDA SOUZA RIBEIRO                       20050224AV COACIARA, 722                                  PRQ D PEDRO II                          CAMPINAS            SP13056-430                                                     FS                             322                  32269388                                     02FA06257601              20050421  0000000190
11MARIA JOSE RIBEIRO PAULO                          19790521AV ITAMARATI, 785                                 VL AEROPORTO                            CAMPINAS            SP13054-150                                                     FS                             326                  32660627                                     02CL07925104              20050331  0000000191
11MARIA NASCIMENTO DOS ANJOS                        19491224QUATRO, 130                                       JD LILISA                               CAMPINAS            SP13058-274                                                     FC                             327                  32729359                                     02FA06253201              20050323  0000000192
11MARIA ODETE BAZAN FAJARDO                         19460907R CONSELHEIRO JOSE PEREIRA, 272                   JD LONDRES                              CAMPINAS            SP13060-030                                                     FU                             322                  32296179                                     02CL07925302              20050418  0000000193
11MARIA ONILA PEREIRA                               19650102MARCOS TEODORO, 582                               JD SHANGAI                              CAMPINAS            SP13056-650                                                     FC08372252807165681780         326                  32669509                                     02FA06253900              20050330  0000000194
11MARIA ORTIZ DA SILVA                              19420528RUA VIRGILIO BARBUTE, 189                         PARQUE UNIVERSITARIO                    CAMPINAS            SP13083-640                                                     FU                             328                  32878173                                     02FA06259601              20050505  0000000195
11MARIA PEREIRA DA SILVA PEDRO                      19540813R ANDREA FERNANDES DA SILVA ARAUJO309             JD TAMOIO                               CAMPINAS            SP13097-790                                                     FC           7688736           323                  32327475                                     02FN06258702              20050519  0000000196
11MARIA SOARES DE OLIVEIRA                          19191123NICARAGUA, 70                                     JD N EUROPA                             CAMPINAS            SP13036-330                                                     FC324694358389389210x          323                  32388535                                     02FA06251900              20050310  0000000197
11MARIANE TAUANE GONALVES COGHI                    19970108R MANOEL FERNANDES DIAS, 12                       JD N C ELISIOS                          CAMPINAS            SP13060-110                                                     FS                             32637255972          32688040                                     02FA06259701              20050506  0000000198
11MARILSA DOMICIANO SOUZA BOTTELHO                  19681030R JOAO BATISTA DE SA, 328                         JD SHANGAI                              CAMPINAS            SP13056-643                                                     FC10130426890279144866         326                  32666195                                     02FA06257000              20050420  0000000199
11MARLI PEREIRA DA SILVA DEROIDE                    19770820AV ITAMARATI, 785                                 VL AEROPORTO                            CAMPINAS            SP13054-150                                                     FS                             326                  32660627                                     02CL07925101              20050331  0000000200
11MATHEUS LEVI DE SOUZA TEIXEIRA                    19990124R JOAO BATISTA DE SA, 328                         JD SHANGAI                              CAMPINAS            SP13056-643                                                     MS                             326                  32666195                                     02FA06257003              20050420  0000000201
11MATTEUS SOUSA CALGAROTTO                          20030622OSWALDO IMS, 215                                  JD S LUCIA                              CAMPINAS            SP13060-511                                                     MS                             920                  92021216                                     02CL07923601              20050328  0000000202
11MAURICIO CONSTANTINI                              19710518SANTA BARBARA D OESTE, 530                        JD N C ELISIOS                          CAMPINAS            SP13050-542                                                     MS                             326                  32691238                                     02FA06253701              20050329  0000000203
11MIRIAN PEREIRA PEDRO                              19910311R ANDREA FERNANDES DA SILVA ARAUJO309             JD TAMOIO                               CAMPINAS            SP13097-790                                                     FS           7688736           323                  32327475                                     02FN06258701              20050519  0000000204
11MYRIAM APARECIDA LINARDI BARBOSA                  19230403RUA DONA AMELIA DE PAULA, 124                     JARDIM LEONOR                           CAMPINAS            SP13041-40                                                      FU                             323                  32366071                                     02FA06260202              20050511  0000000205
11NADIR APARECIDA DE FRANCA                         19640201R JURUPEMA, 1012 A                                VL AEROPORTO                            CAMPINAS            SP13054-134                                                     FC1206573686021870229          326                  32665883                                     02FA06253400              20050323  0000000206
11NEUZA DE FREITAS GALVAO DEODATO                   19621007R VINTE E QUATRO, 33                              COLINA                                  MONTE MOR           SP13190-000                                                     FC           10862017          323                  32327475                                     02FN06258601              20050519  0000000207
11NOEL CARLOS RIBEIRO MORAES                        19671011AV JOSE BONIFACIO, 14-B                           JD FLAMBOYANT                           CAMPINAS            SP13093-240                                                     MC14878656867185671639         329                  32944623                                     02CL07925600              20050420  0000000208
11NORBERTO JOSE SILVESTRE DE OLIVEIRA               19600124R MONTESE, 510                                    VL C BRANCO                             CAMPINAS            SP13061-041                                                     MC016895018989854765           326                  32684939                                     02FA06258800              20050501  0000000209
11ODAIR JOSE NEVES                                  19751004R BERNARDINO MARTINS FILHO, 275                   JD BANDEIRAS                            CAMPINAS            SP13051-103                                                     MC           336484367         326                  32682003                                     02CL07939801              20050517  0000000210
11ODIMAURO VICENTE DE PAULA                         19580217R ITALIA, 24                                      VL A NEVES                              CAMPINAS            SP13070-350                                                     MC                             97432661685          97414545                                     02CL07923400              20050328  0000000211
11ODOMAR ANTONIO DE LIMA                            19750209DANIEL GODOI PEREIRA, 139                         CJ HAB V NOVA                           CAMPINAS            SP13057-541                                                     MS                             326                  32668934                                     02FA06252701              20050322  0000000212
11OILVA TRESSO                                      19470206DOUTOR MAURO BRANDEMBURGO, 814                    JD M M COSTA        APTO. 21 BLOCO F    CAMPINAS            SP13097-859                                                     FC7737533583452922649          325                  32572234                                     02FA06252100              20050318  0000000213
11ONIVALDO CAMARGO                                  19420425R MARQUES DE VALENCA, 520                         JD S GENEBRA                            CAMPINAS            SP13080-230                                                     MC365199368045136319           320                  32082373                                     02FA06259800              20050506  0000000214
11ORAIR TAPAN FERREIRA                              19260919R DOUTOR PAULO ARIANI, 196                        JD YEDA                                 CAMPINAS            SP13060-614                                                     FC           27549410X         326                  32634783                                     02FA06262001              20050513  0000000215
11PATRICIA MOURA DO AMARAL                          19860513R JOAO TOSELLO, 21                                REC SOL II                              CAMPINAS            SP13056-636                                                     FC                             32232661738          32243697                                     02CL07924001              20050331  0000000216
11PAULA YARA DIAS                                   19850110AV ITAMARATI, 785                                 VL AEROPORTO                            CAMPINAS            SP13054-150                                                     FS                             326                  32660627                                     02CL07925105              20050331  0000000217
11PAULO CESAR SILVINO                               19680514R MANOEL FERNANDES DIAS, 12                       JD N C ELISIOS                          CAMPINAS            SP13060-110                                                     MC1025315383219627179          32637255972          32688040                                     02FA06259700              20050506  0000000218
11PEDRO CONESQUI                                    19231101R CAETES, DOS, 76                                 VL C SILVA                              CAMPINAS            SP13081-210                                                     MU4480934480058370523          320                  32084155                                     02FA06254000              20050330  0000000219
11PETERSON ANTONIO RODRIGUES                        19740203COMENDADOR ALADINO SELMI, 2557                    N APARECIDA         APTO 13 BL A        CAMPINAS            SP13069-101                                                     MS           1359003762        328                  32822494                                     02FA06262901              20050524  0000000220
11PRISCILA BONFIM MATOS                             19840821R FALCAO FILHO, 152                               CENTRO                                  CAMPINAS            SP13020-160                                                     FS                             323                  32310335                                     02CL07925202              20050413  0000000221
11RAFAELA CRISTINA PINHEIRO MENDES DA SILVA         20010221R MARCOS TEODORO, 638                             JD SHANGAI                              CAMPINAS            SP13056-650                                                     FS                             322                  32264517                                     02FA06255601              20050331  0000000222
11RAFAELA FERRARI SILVA                             19930214R MIGUEL JOAO JORGE, 95                           JD S JOSE                               CAMPINAS            SP13051-172                                                     FS                             32632691704          32691704                                     02FA06259902              20050510  0000000223
11RAILDA MARIA MIGUEL                               19551003RUA DOIS, 79                                      JARDIM CAMPINEIRO                       CAMPINAS            SP13082-335                                                     FS           81440936          324                  32462575                                     02PE06258504              20050524  0000000224
11RAIMUNDA DEOLINDA RODRIGUES                       19150104R ANTONIO CEZARINO, 591                           BOSQUE                                  CAMPINAS            SP13015-291                                                     FU                             32391112060          32323498                                     02FA06258001              20050426  0000000225
11RAIMUNDO BATISTA CARNEIRO                         19291229RUA LOPES TROVAO, 336                             TAQUARAL                                CAMPINAS            SP13076-670                                                     MS                             325                  32537053                                     02FA06259101              20050502  0000000226
11RAQUEL APARECIDA DE FREITAS CARDELLI              19570519ESTRADA USINA SALTO GRANDE, KM 3 S/N              CHACARA NATUREZA                        CAMPINAS            SP13108-022                                                     FC8675658389132986230          96432986230          96432723                                     02FA06252300              20050317  0000000227
11RARIA DA SILVA FERREIRA DIAS BERNARDO            19920107RUA VIRGILIO BARBUTE, 189                         PARQUE UNIVERSITARIO                    CAMPINAS            SP13083-640                                                     FS                             328                  32878173                                     02FA06259603              20050505  0000000228
11RICARDO ALEKSANDRO SA SILVA                       19730130R MIGUEL JOAO JORGE, 95                           JD S JOSE                               CAMPINAS            SP13051-172                                                     MS                             32632691704          32691704                                     02FA06259903              20050510  0000000229
11RICARDO TRINDADE CANHADAS                         19660809R MAURO DE CAMPOS JUNIOR, 89                      DIC I                                   CAMPINAS            SP13052-372                                                     MC06838183846770903576         322                  32245341                                     02CL07924300              20050331  0000000230
11RICHARD SOUZA CANHADAS                            19970206R MAURO DE CAMPOS JUNIOR, 89                      DIC I                                   CAMPINAS            SP13052-372                                                     MS                             322                  32245341                                     02CL07924302              20050331  0000000231
11RITA DE CASSIA ATANAZIO DOS SANTOS CORREIA ME     19591206R JUREMA, 486                                     DIC VI                                  CAMPINAS            SP13054-622                                                     FC02364299810                  322                  32263680                                     02CL07925000              20050330  0000000232
11RITA DE CASSIA PATROCINIO GONCALVES               19690812R CAMAIORE, 276                                   VL C BRANCO                             CAMPINAS            SP13061-240                                                     FC                             328                  32876700                                     02FA06255901              20050331  0000000233
11RITA PETERLEVITZ SLATEFF                          19290925RUA ITATIBA, 1495                                 JD  NOVO C  ELISIO                      CAMPINAS            SP13005-545                                                     FC                             322                  32294445                                     02FA06257301              20050425  0000000234
11ROBERTO FERRARI SILVA                             19911123R MIGUEL JOAO JORGE, 95                           JD S JOSE                               CAMPINAS            SP13051-172                                                     MS                             32632691704          32691704                                     02FA06259901              20050510  0000000235
11ROBERTO SLATEFF                                   19660913RUA ITATIBA, 1495                                 JD  NOVO C  ELISIO                      CAMPINAS            SP13005-545                                                     MS                             322                  32294445                                     02FA06257302              20050425  0000000236
11RODRIGO FERNANDES                                 19851213COMENDADOR ALADINO SELMI, 2557                    N APARECIDA         APTO 13 BL A        CAMPINAS            SP13069-101                                                     MS           1359003762        328                  32822494                                     02FA06262902              20050524  0000000237
11RODRIGO FERREIRA                                  19870531R JOAO TOSELLO, 21                                REC SOL II                              CAMPINAS            SP13056-636                                                     MC           172070356         32232661738          32243697                                     02CL07924000              20050331  0000000238
11ROMEU HANZIR                                      19250601R ALVARO MULLER, 852                              VL ITAPURA                              CAMPINAS            SP13023-181                                                     MU                             323                  32360136                                     02FA06259401              20050429  0000000239
11RONALDO AUGUSTO TOLEDO                            19841005R CAMINHO BOA ESPERANCA, 20                       VILA GEORGINA                           CAMPINAS            SP13080-501                                                     MS                             327                  32799265                                     02FA06258501              20050429  0000000240
11ROSA ISOLINA PINHEIRO                             19340301ANDORINHAS, DAS, 477                              JD ANDORINHAS       APTO 13 BL 3        CAMPINAS            SP13097-000                                                     FU           290333039         325                  32541596                                     02FA06261901              20050520  0000000241
11ROSALIA PEREIRA SA SILVA                          19320727R BENEDITA RIBEIRO, 183                           JD S LUCIA                              CAMPINAS            SP13060-512                                                     FA                             918                  91895682                                     02CL07923201              20050328  0000000242
11ROSANA DAS DORES CAMPOS                           19700704R PROFESSOR JOAO AUGUSTO DE TOLEDO, 251           VL P SOUZA                              CAMPINAS            SP13033-720                                                     FS                             32432425510          32424055                                     02CL07925402              20050420  0000000243
11ROSANGELA DA CONCEICAO ANTONIO                    19600214COMENDADOR ALADINO SELMI, 2557                    N APARECIDA         APTO 13 BL A        CAMPINAS            SP13069-101                                                     FS223335448641359003762        32892156122          32822494                                     02FA06262900              20050524  0000000244
11ROSANGELA DE MOURA SOARES ARRUDA                  19760801R ALVES DO BANHO, 527                             VL S BERNARDO                           CAMPINAS            SP13030-580                                                     FC                             327                  32725520                                     02FA06253101              20050323  0000000245
11SANDRA VERISSIMO DE MATOS VIEIRA                  19680224R TAIUVAS, DAS, 174                               VL B VISTA                              CAMPINAS            SP13065-770                                                     FC                             912                  91251403                                     02CL07923501              20050328  0000000246
11SANDRO EMERSON DANTAS SILVA                       19720126R ALVARO MULLER, 754                              VL ITAPURA                              CAMPINAS            SP13023-181                                                     MC           247650420         913                  91398560                                     02CL07922700              20050328  0000000247
11SEILA APARECIDA BARBOSA DUARTE                    19411024RUA DONA AMELIA DE PAULA, 124                     JARDIM LEONOR                           CAMPINAS            SP13041-40                                                      FC                             323                  32366071                                     02FA06260201              20050511  0000000248
11SELMA DE ALMEIDA MARTINS                          19430626R ALCIDES DE GODOI, 451                           JD PARAISO                              CAMPINAS            SP13060-020                                                     FC           1053946           325                  32535846                                     02FA06261001              20050517  0000000249
11SERAFIN RODRIGUES DE OLIVEIREA                    19290424R REVERENDO PROFESSOR HERCULANO G 36              JD LAGO             JR                  CAMPINAS            SP13050-020                                                     MC           286573945         326                  32698370                                     02PE06258605              20050524  0000000250
11SERGIO DEL GALLO                                  19370410R BARREIRO, 44                                    PONTE PRETA                             CAMPINAS            SP13041-370                                                     MS                                                                                               02FA06258702              20050429  0000000251
11SHIRLEY DE CASTRO DOURADO CORREA                  19551114R BENJAMIN MALUF, 468                             JD C LOURENCO                           CAMPINAS            SP13097-030                                                     FC                             325                  32536743                                     02FA06255301              20050331  0000000252
11SHYRLEI ANKLAM BOTTCHER                           19501205RUA ANTONIO PINTO DE MORAES, 170                  VILA INDUSTRIAL                         CAMPINAS            SP13031-780                                                     FC2646307381420893092          327                  32734754                                     02FA06254300              20050405  0000000253
11SIGRED CRUZ GRIBEL                                19491020R URUGUAIANA, 559                                 BOSQUE              APTO. 23            CAMPINAS            SP13026-001                                                     FS25802401877m-4271296         323                  32376064                                     02FA06251300              20050228  0000000254
11SILVIA HELENA PRADO FORTUNA                       19570302R JOSE INOCENCIO DE CAMPOS, 46                    CAMBUI                                  CAMPINAS            SP13024-230                                                     FC0250849089093902529          325                  32514746                                     02FA06251200              20050228  0000000255
11SOLANGE DA SILVA RODRIGUES                        19811223R JOSE PAULINO, 320                               CENTRO                                  CAMPINAS            SP13013-000                                                     FC2210255287034991609          323                  32336565                                     02CL07925700              20050427  0000000256
11SONIA DOURADO CORREA                              19731127R BENJAMIN MALUF, 468                             JD C LOURENCO                           CAMPINAS            SP13097-030                                                     FS                             325                  32536743                                     02FA06255302              20050331  0000000257
11STELAMARIS FARIA                                  19550730AV COACIARA, 722                                  PRQ D PEDRO II                          CAMPINAS            SP13056-430                                                     FV0167116380013464640          322                  32269388                                     02FA06257600              20050421  0000000258
11SUELI PITTAR DE FREITAS                           19600601R ABEL LUIS FERREIRA, 126                         JD LAGO                                 CAMPINAS            SP13050-023                                                     FC0168320282117295366-2        32632320332          32688509                                     02FA06252200              20050311  0000000259
11TABATA CRISTINA PATROCINIO                        19710502R MONTE PRANO, 255                                VL C BRANCO                             CAMPINAS            SP13061-252                                                     FS                             815                  81535623                                     02FA06259501              20050430  0000000260
11TATIANE CAVALCANTI MATIAS                         20010707R CAIEIRAS, 100                                   VL S PAULO                              JUNDIAI             SP13203-513                                                     FS                             915                  91564884                                     02CL07923103              20050328  0000000261
11TATIANE CILENE DOS SANTOS DE OLIVEIRA             19761228R REVERENDO PROFESSOR HERCULANO G 36              JD LAGO             JR                  CAMPINAS            SP13050-020                                                     FC           286573945         326                  32698370                                     02PE06258601              20050524  0000000262
11TELMA DOS SANTOS                                  19740316ENGENHEIRO OSVALDO NASCIMENTO DE LEMOS,7          VL LEMOS                                CAMPINAS            SP13096-280                                                     FC15844922875253944661         32591265711          32510951                                     02CL07967700              20050530  0000000263
11TEREZA APARECIDA PAIS DE CAMARGO                  19410530R MONTESE, 510                                    VL C BRANCO                             CAMPINAS            SP13061-041                                                     FS                             326                  32684939                                     02FA06258802              20050501  0000000264
